:020000040800F2
:10000000B0080020DD180008B9080008BB08000887
:10001000BF080008C3080008C70800080000000067
:10002000000000000000000000000000CB080008F5
:10003000CD08000800000000CF080008D108000823
:10004000F7180008F7180008F7180008F718000854
:10005000F7180008F7180008F7180008F718000844
:10006000F7180008F7180008F7180008F718000834
:10007000F7180008F7180008F7180008F718000824
:10008000F7180008F7180008F7180008F718000814
:10009000F7180008F7180008F7180008F718000804
:1000A000F7180008F7180008F7180008F7180008F4
:1000B000F718000871140008F718000873140008F6
:1000C00061160008B516000859180008F71800084E
:1000D000F718000833120008F7180008F71800088E
:1000E000F7180008F7180008F7180008F7180008B4
:1000F000F7180008F7180008F7180008F7180008A4
:10010000F7180008F7180008F7180008F718000893
:10011000F7180008F7180008F7180008F718000883
:10012000F7180008F7180008F7180008F718000873
:1001300000F002F800F05FF80AA090E8000C82449A
:100140008344AAF10107DA4501D100F054F8AFF277
:10015000090EBAE80F0013F0010F18BFFB1A43F0A5
:1001600001031847CC420000EC4200000A444FF063
:10017000000C10F8013B13F0070408BF10F8014B06
:100180001D1108BF10F8015B641E05D010F8016B4B
:10019000641E01F8016BF9D113F0080F1EBF10F8AF
:1001A000014BAD1C0C1B09D16D1E58BF01F801CBD2
:1001B000FAD505E014F8016B01F8016B6D1EF9D555
:1001C0009142D6D37047000000230024002500266A
:1001D000103A28BF78C1FBD8520728BF30C148BFAA
:1001E0000B607047642904F00380002070471FB53E
:1001F0001FBD10B510BD04F0E9F81146FFF7F7FF79
:1002000000F0ACFA04F007F903B4FFF7F2FF03BC07
:1002100000F0B4FF10B50020FB49087035E000F095
:1002200099FC582000F04BFD02E0582000F047FDFB
:1002300000F0D2FC0028F8D1F449F34A1278885C27
:1002400000F03DFD05E0F149EF4A1278885C00F0CE
:1002500036FD00F0C1FC0028F5D1ED49EA4A1278DC
:10026000885C00F02CFD05E0E949E74A1278885CDB
:1002700000F025FD00F0B0FC0028F5D100F08AFC6C
:10028000E1480078401CE0490870DF4800781828F1
:10029000C5DB10BDFF20DF49487688760020DA49AB
:1002A000087016E0FF20DB49D74A12788854FF21F6
:1002B000D848401DD84A127881540A30D64A12785C
:1002C0008154D54A12788154CF480078401CCE49D9
:1002D0000870CD4800780528E4DB704710B501218F
:1002E000022002F0DAFD10BD08B50220ADF80000D2
:1002F00003208DF8020010208DF803006946C748DE
:1003000002F0E0F808BD0EB50121C54803F026FD56
:100310004FF4FA70ADF8040048F69F40ADF80000C5
:100320000020ADF80600ADF802006946BC4802F0B6
:10033000DFFE01221146BA4803F051FA0121B84804
:1003400003F032FA0EBD10B502F02CFC012002F0D1
:10035000AEFC00BF212002F068FC0028FAD000208B
:1003600002F0C5FC002002F0D4FC4FF4806002F0E3
:10037000C7FC022001F068FD102001F079FD4FF468
:100380002011002002F096FC012002F09FFC00BF2B
:10039000392002F04AFC0028FAD0022002F099FC31
:1003A00000BF02F09FFC0828FBD101211C2002F0B5
:1003B00067FD0121084602F063FD10BD70B50546DA
:1003C0000C4645F2555002F0CDFB284602F0CDFB1D
:1003D000204602F0CDFB02F0CEFB02F0D1FB70BD57
:1003E00010B502F0C8FB10BD10B500F0B3FBBA2089
:1003F00000F065FC00F0F0FB002000F060FC00F075
:10040000EBFB0446214687A003F0B2FE14B940F28C
:100410008F3010BD4FF4A350FBE770B500F09AFB8E
:10042000702000F04CFC02E0702000F048FC00F06E
:10043000D3FB0028F8D100F042FC02E0002000F0DD
:100440003EFC00F0C9FB0028F8D100F0A3FB00F04F
:1004500081FB712000F033FC02E0712000F02FFCE2
:1004600000F0BAFB0028F8D1674908700BE00120C2
:1004700000F050FC6E49644A127888546248007853
:10048000401C61490870604800782028EFDB00209C
:1004900000F040FC664981F8200000F07BFB6448D6
:1004A000807818B162488078FF2804D1604880784D
:1004B0005849487681E05E48807805287DDC5C48B4
:1004C0008078544948760846407E052801DD05209D
:1004D000487600205049087069E04F4C247804EBBE
:1004E00044046400241D524D2D5D4B4C247804EBD4
:1004F00044046400E41C4E4E345D04F00F0445EAED
:100500000420454C247804EB44046400A41D3546C3
:100510002D5D414C247804EB44046400641D345D7B
:1005200004F00F0445EA04213B4C247804EB440416
:100530006400E41C35462C5DA211374C247804EB92
:1005400044046400641D2C5D2311B0F5487F01DD77
:100550004FF44870B1F5F07F01DD4FF4F07100B950
:10056000012001B90121C0F54874A0B2C1F5F074B1
:10057000A1B2284D284E3678A855050A254C641D91
:10058000254E3678A555641D234E3678A1550D0AA3
:10059000641D214E3678A5550F3CA27614341E4DAD
:1005A0002D7863551C480078401C1B490870194879
:1005B000407E1949097888428FDC70BD70B50020F3
:1005C00011490870144908700122194948F24E1067
:1005D00000F006FC1648007818B115480078FF288E
:1005E00036D114480078401C12490870084600783B
:1005F000012821D100F082FD01220D4948F24E1060
:1006000000F0EEFB28E000000000002008000020C1
:10061000200000206B01002001000020001001409C
:100620000004004061636B3D2025640D0A0000005A
:1006300040010020380000208E480078042806DDA4
:1006400004208C4908708C4800788C4948767EE0FC
:1006500000208849087000BF8748007800F08000BB
:10066000002874D08448007800F00F0000286EDD68
:100670008148007800F00F00804948760846407EA7
:10068000052801DD052048767C48407EC000401CDE
:10069000C2B2794948F24E1000F0A2FB002078491E
:1006A00008704EE0764B1B78DB005B1C724CE25C02
:1006B000734B1B78DB009B1CE45C714B1B78DB00ED
:1006C000DB1C6D4DEB5C44EA03206D4B1B78DB00BB
:1006D0001B1D2C46E45C6A4B1B78DB005B1DEB5C4E
:1006E00044EA0321B0F5487F01DD4FF44870B1F5CD
:1006F000F07F01DD4FF4F07100B9012001B9012153
:10070000C0F5487398B2C1F5F07399B25B4B5C4D7C
:100710002D785855040A5B1D594D2D785C555B1D8D
:10072000574D2D7859550C0A5B1D554D2D785C554C
:100730005B1D534C24781A5551480078401C504991
:1007400008704E48407E4E4909788842AADC012252
:100750004C4948F24E1000F015FB70BDB0B0B82106
:1007600002A803F081FDFFF7EEFDFFF7B7FD4FF4A0
:10077000E13000F012FD44A003F0FAFC7D2002F00D
:1007800054FA30B102F0BAFB042145A003F0F0FCAA
:1007900001E000F08FF94FF47A710620FFF70EFEAA
:1007A00000F074FC00F0D6FC00F088FD00F0D1FDF4
:1007B00000F08CFB322000F0A1FC0121082002F0A7
:1007C0005FFB0320ADF8040010208DF80700032024
:1007D0008DF8060001A9354801F074FE0121334867
:1007E00001F01DFF0221314801F019FF00F099F9D5
:1007F0000220ADF8040028208DF8070001A92B483D
:1008000001F060FE0221294801F00BFFFFF742FDD5
:10081000FFF700FD0121254801F003FF0A2000F049
:100820006DFC0121214801F0FAFE322000F066FC47
:100830004FF4A3501E4908601BE01E4800780128B1
:1008400015D100201B490870012000F057FC184802
:10085000006840F28F31884202D1FFF7AFFE06E018
:1008600013480068B0F5A35F01D1FFF7D6FDFFF78D
:10087000B7FDE2E738000020400100206B010020B6
:10088000010000203900002044465230363738201D
:1008900056312E305F32303231303431320D0A0071
:1008A0005744542052535425640D0A00000C014053
:1008B000040000201E010020704700BFFEE700BFBB
:1008C000FEE700BFFEE700BFFEE7704770477047D6
:1008D000704700000CB50020019000906C48006843
:1008E00040F480306A49086000BF6948006800F43D
:1008F000003000900198401C0190009818B90198B0
:10090000B0F5A06FF1D16248006800F4003010B17A
:100910000120009001E0002000900098012843D1C0
:100920005C48006840F010005A49086008460068BA
:1009300020F0030008600846006840F002000860EC
:100940005348406852494860084640684860084635
:10095000406840F4806048600846406820F47C109D
:1009600048600846406840F4E8104860084600685F
:1009700040F08070086000BF4548006800F00070DB
:100980000028F9D04248406820F003004049486000
:100990000846406840F00200486000BF3C4840689C
:1009A00000F00C000828F9D10CBD10B5FFF792FF3C
:1009B00010BD10B53648006840F0010034490860A9
:1009C0000846406834490840314948600846006894
:1009D000324908402E4908600846006820F480200B
:1009E00008600846406820F4FE0048604FF41F008D
:1009F0008860FFF7DAFF4FF000602949086010BDFA
:100A000010B5002100200022214B5B6803F00C018F
:100A100021B1042906D0082928D107E0214B224C16
:100A2000236027E01F4B204C236023E0184B5B68BA
:100A300003F47010164B5B6803F48032022303EB5F
:100A4000904022B9194B4343174C23600DE0104BE3
:100A50005B6803F4003323B1144B4343124C23600F
:100A600003E0104B4343104C236003E00D4B0E4C4E
:100A7000236000BF00BF064B5B68C3F303130C4C3D
:100A8000E15C094B1B68CB40074C236010BD0000A4
:100A900000100240002002400000FFF8FFFFF6FEB9
:100AA00008ED00E000127A003C00002000093D0043
:100AB0004000002008B50121042002F0E1F90820DF
:100AC000ADF8000010208DF8030003208DF802001F
:100AD00069460F4801F0F6FC0121082002F0D0F928
:100AE0000120ADF8000010208DF8030003208DF8E0
:100AF00002006946074801F0E5FC0220ADF800005D
:100B000048208DF803006946024801F0DBFC08BD6F
:100B100000080140000C014010B5042000F0CAFAA2
:100B200010BD08B50121042002F0AAF94FF440607D
:100B3000ADF8000010208DF8030003208DF80200AE
:100B400069468D4801F0BEFC4FF440618A4801F0CF
:100B500066FD08BD10B58848001D006820F470606F
:100B60008549091D08600846006840F44070086027
:100B70000120824908608249C1F8AC01FFF7CCFF2F
:100B800000207E490860FFF7C7FF00207C49C1F8BC
:100B9000AC0110BD10B57848001D006820F47060ED
:100BA0007549091D08600846006840F440700860F7
:100BB00000207249091D08607149C1F8A801FFF7BA
:100BC000ABFF01206D49091D0860FFF7A5FF01205B
:100BD0006B49C1F8A80110BD10B500246648001D7E
:100BE000006820F470606449091D086008460068C8
:100BF00040F40060086001206049086000F05AFA83
:100C000001205F49C1F8AC0100F054FA07E0601C14
:100C1000C4B2642C03DDFFF7BDFF012010BD5748AF
:100C2000803800680028F2D15449091D086000BFCF
:100C3000F4E710B500205149091D08604E48001D19
:100C4000006820F470604C49091D0860084600687F
:100C500040F44070086000204949C1F8A801FFF73E
:100C60005BFF01204549091D0860FFF755FF002083
:100C70004349C1F8AC0110BD10B500203F49091D22
:100C800008603D48001D006820F470603A49091D65
:100C900008600846006840F4407008600120384948
:100CA000C1F8A801FFF738FF01203449091D086089
:100CB000FFF732FF00203249C1F8AC0110BD70B51A
:100CC00004462D48001D006820F470602A49091D63
:100CD00008600846006840F440700860002027491A
:100CE000091D0860002512E0E0092449086060063B
:100CF000040E01202249C1F8AC01FFF70DFF0020CE
:100D00001E49091D0860FFF707FF681CC5B2082DC2
:100D1000EADB70BD70B5054600241748001D006869
:100D200020F470601449091D08600846006840F40A
:100D300000600860002614E000201049091D0860CA
:100D40000A2000F0B7F901200D49C1F8AC01600696
:100D5000040E0A488038006808B1601CC4B2701CD8
:100D6000C6B2082EE8DB15B9FFF786FF01E0FFF7F2
:100D700060FF204670BD000000080140A80121422C
:100D8000000021422DE9F04104460E4617464FF07F
:100D90000008FFF7DFFEBA20FFF791FFFFF71CFF07
:100DA0002012FFF78CFFFFF717FFE0B2FFF787FF76
:100DB000FFF712FF00250BE0705DFFF780FFFFF7E4
:100DC0000BFF8046B8F1000F00D003E0681CC5B2ED
:100DD000BD42F1DB00BFFFF7DDFE4046BDE8F0811C
:100DE0002DE9F04104460F461646FFF7B3FEBA2040
:100DF000FFF765FF02E0BA20FFF761FFFFF7ECFEA7
:100E00000028F8D12012FFF75AFF02E02012FFF766
:100E100056FFFFF7E1FE0028F8D1E0B2FFF74FFFE1
:100E200002E0E0B2FFF74BFFFFF7D6FE0028F8D153
:100E3000FFF790FEBB20FFF742FF02E0BB20FFF769
:100E40003EFFFFF7C9FE0028F8D100250BE0711E18
:100E5000A94201D0012100E000210846FFF75AFF16
:100E60007855681CC5B2B542F1DBFFF793FEBDE8CB
:100E7000F08138B50546002400208DF800008DF87B
:100E8000015000BF09E09DF800000F49095D0844CA
:100E9000C0B28DF80000601CC4B2B82CF3D39DF82A
:100EA0000000C043401CC0B28DF80000B8220649C3
:100EB00048F24700FFF766FF0222694648F2FF004A
:100EC000FFF760FF002038BD5000002000B587B05C
:100ED000012140F2052001F0D3FF4FF4004001F062
:100EE00033FF0120ADF8180000208DF81B0003200F
:100EF0008DF81A0006A9614801F0E4FA002001907B
:100F00008DF808008DF809004FF460200390002050
:100F1000049001208DF8140001A9594800F093FDB8
:100F2000072301220021564800F025FE01215448E4
:100F300000F0B5FD524800F0D4FD00BF504800F06D
:100F4000D5FD0028FAD14E4800F0DAFD00BF4C482C
:100F500000F0DBFD0028FAD10121494800F0DFFD57
:100F600007B000BD70B50024002510E00121444801
:100F700000F0D5FD00BF0221414800F041FF0028EC
:100F8000F9D03F4800F05EFE0444681CC5B2082D4D
:100F9000ECDBE4083B480068001B19280CD9A4F2DC
:100FA00014504FF4616148434FF40C71B0FBF1F001
:100FB0003549088033480460204670BD30B589B09B
:100FC00005460C460121084601F067FF0121052076
:100FD00001F056FF0820ADF8200018208DF82300FE
:100FE00003208DF8220008A9244801F06BFAADF81F
:100FF0001850ADF814400020ADF81A00ADF81600F6
:1010000005A94FF0804002F073F87020ADF804009D
:101010000120ADF806000420ADF808000220ADF86C
:101020000C000020ADF80E004FF48070ADF81000F9
:101030000020ADF8120001A94FF0804002F06FF9D6
:101040000821C80602F0FFFC00214FF0804002F0AA
:10105000ABFB09B030BD10B5092140F60F60FFF7BA
:10106000ADFF4FF4E160084908800121C00602F09D
:101070009BFB0121880702F0A3FB10BD0008014083
:101080000024014008010020400000402D48006875
:101090002D49B0FBF1F02D4908700846007800EBAF
:1010A0004001C1EBC0104FF6FF7101EAC0002849B2
:1010B000088070470146254A12784A434FF0E023E2
:1010C0005A6100229A611A46126942F001021A61BD
:1010D00000BF4FF0E022106900F001021AB100F4E5
:1010E0008032002AF5D04FF0E022126922F001028E
:1010F0004FF0E0231A6100229A6170470146144ABA
:1011000012884A434FF0E0235A6100229A611A463E
:10111000126942F001021A6100BF4FF0E02210692B
:1011200000F001021AB100F48032002AF5D04FF02D
:10113000E022126922F001024FF0E0231A6100223E
:101140009A6170473C00002000127A000C010020D8
:101150000E01002008B54FF4A06000F0DFFB1D2059
:101160008DF8000000208DF8010001208DF80200AC
:101170008DF80300684600F0D6FB08BD014600BFAD
:10118000704700BF494A128802F04002002AF9D095
:10119000C2B2464B1B1D1A80704710B586B004467C
:1011A000012144F2040001F06BFE4FF40070ADF831
:1011B000140003208DF8160018208DF8170005A9DB
:1011C0003B4801F07FF94FF48060ADF81400042033
:1011D0008DF8170005A9364801F074F925208DF81F
:1011E000000003208DF801008DF8020001208DF829
:1011F0000300684600F097FB01940020ADF808005A
:10120000ADF80A00ADF80C00ADF810000C20ADF8F8
:101210000E0001A9254802F0E8FD012240F2255107
:10122000224802F07AFE0121204802F06AFE06B050
:1012300010BD10B540F225511C4802F053FF10B309
:101240001A4802F0CFFEC4B21A48008800F40040E9
:10125000C8B91848008800F4804060B10A2C03D057
:1012600000201449088020E01248008840F4004023
:101270001049088019E00D2C06D10E48008840F472
:1012800080400C49088010E00A480088C0F30D0037
:1012900009490C5407480088401C06490880084644
:1012A0000088C72801DD0020088010BD00380140FB
:1012B00000080140140100208601002000B587B01D
:1012C0000121880501F0E9FD0121082001F0D8FD88
:1012D0004FF44060ADF8180003208DF81A001C2070
:1012E0008DF81B0006A9FE4801F0ECF8FD480290BD
:1012F0000020ADF80C004BF6FF70ADF80E00FA4878
:101300000088ADF810004FF48060ADF812000001C5
:10131000ADF8140002A9F54801F03BFA01224FF4A0
:10132000E061F24801F01EFB21208DF8040001204D
:101330008DF8050000208DF8060001208DF80700CB
:1013400001A800F0F0FA0121E84801F0A0FA07B086
:1013500000BD00B587B00121480501F09EFD0121C7
:10136000082001F08DFDC020ADF8180003208DF895
:101370001A001C208DF81B0006A9D94801F0A2F81C
:10138000D84802900020ADF80C004BF6FF70ADF885
:101390000E00D7480088ADF810004FF48060ADF81B
:1013A00012000001ADF8140002A9D24801F0F1F9D1
:1013B00001224FF4E061CF4801F0D4FA1F208DF8EC
:1013C000040001208DF8050000208DF806000120A2
:1013D0008DF8070001A800F0A6FA0121C54801F028
:1013E00056FA07B000BD10B50446C349204601F0C7
:1013F00075FB208B10BD10B50446BF490E31204649
:1014000001F06CFB0121204601F041FA10BD10B53E
:10141000B848FFF7E8FFFFF79CFF10BD10B5044682
:10142000B248FFF7E0FFB5480178B04801F0A3FAF1
:1014300010BD10B5AF48FFF7D6FFB148007840B9EE
:101440000120AF490870AF48417EAA4801F093FAE5
:101450000DE00020AC490870AC480078401EA94A55
:10146000521D105C40F08001A24801F084FA10BDCA
:10147000704710B5A6499F4801F053FB18B1A44925
:101480009C4801F069FB9B4801F01BFBA14A811AB3
:10149000904271D01ADCA04AA0EB020190426CD0BD
:1014A0000DDC10287FD0B0F5806F68D0B0F1021F3E
:1014B00028D0A0F500304038002870D126E001295E
:1014C0006ED007296DD03F29F7D1C1E0934A881A21
:1014D000914267D009DC022971D0A1F57F41FE3924
:1014E00000296BD00229E8D1B3E08D4908440028D7
:1014F00076D0B0F5E00F74D0A0F5E8008038002871
:10150000DBD1A1E07B48FFF76EFFA7E0794801F04F
:1015100034FA844908700020834908700120784912
:1015200008700020814908707E480078022803D1A5
:1015300000207349087031E07A480078032803D10D
:1015400001207249087029E076480078092803D103
:1015500002206E49087021E0724800780F2803D1FC
:1015600003206A49087019E06E480078152807D1F1
:1015700004206649087011E019E067E013E05DE0BF
:10158000684800781B2803D105206049087005E0F1
:1015900064480078FF2801D1FFF739FF5EE05CE086
:1015A00055E059E057E05348FFF725FF56E0FFF7B5
:1015B00040FF01205E49087050E000E04AE05248D8
:1015C000007878B951480078401E4E4A115C49486D
:1015D00001F0D1F94C480078401C4B4908702CE0D0
:1015E00033E030E048480078012816D147480078B9
:1015F000401E444A1432135C44480078401E521F77
:10160000105C63F31F10C1B23A4801F0B4F93E48D0
:101610000078401C3C4908700FE03B4800780228E5
:101620000BD13A480078401E364A0A32115C3148E4
:1016300001F0A1F90020344908700FE034492D4829
:1016400001F08AFA0AE009E008E007E006E005E0B8
:1016500004E003E002E001E000E000BF00BF10BDD5
:1016600010B53449234801F05CFA10BB32492148D7
:1016700001F057FAE8B931491E4801F052FAC0B9F1
:101680002F491C4801F04DFA98B92149194801F039
:1016900048FA20B11E49174801F05EFA09E02949CD
:1016A000144801F03EFA20B94FF00121114801F031
:1016B00038FA10BD10B516490C4801F032FA18B1CD
:1016C00013490A4801F048FA084801F0FAF9114AAA
:1016D000811A904270D04FDC0F4AA0EB020133E038
:1016E000000C0140A08601001801002000580040B5
:1016F00016010020005400400200001020010020CC
:10170000210100206B010020250100201B01002089
:101710000004000182000600010003000200010035
:101720008400F5FF1F010020240100202701002074
:101730001E01002000800001004000010010000197
:101740000008000100020001904279D00DDC102851
:1017500062D0B0F5806F6BD0B0F1021F28D0A0F539
:1017600000304038002874D127E0012969D00729CA
:101770006ED03F296DD165E04C4A881A914266D0FF
:1017800009DC022953D0A1F57F41FE3900295DD043
:1017900002295ED159E04649084400284FD0B0F5EF
:1017A000E00F4AD0A0F5E8008038002851D145E08C
:1017B0004048FFF718FE4DE032E03E4801F0DDF80A
:1017C0003D49087008460078012802D13B4908705D
:1017D00021E039480078802803D1C32037490870B8
:1017E00019E035480078822803D1852033490870F4
:1017F00011E03148007804280DD02F480078FF28E8
:1018000003D101202E49086005E02B48007810B96B
:1018100000202B4908601DE02648FFF7ECFD19E089
:1018200026480078FFF7FAFD14E009E000E011E037
:101830002449204801F090F90CE00BE00AE009E0AF
:1018400008E007E006E004E002E003E002E001E077
:1018500000E000BF00BF10BD10B51B49154801F0E6
:1018600060F910BB1949134801F05BF9E8B9184950
:10187000104801F056F9C0B916490E4801F051F967
:1018800098B910490B4801F04CF920B10D490948AD
:1018900001F062F909E01049064801F042F920B967
:1018A0004FF00121034801F03CF910BD0200010096
:1018B0008400F5FF005800401F0100202001002097
:1018C0008C01214200040001008000010040000161
:1018D00000100001000800010002000109488047D3
:1018E00009480047FEE7FEE7FEE7FEE7FEE7FEE702
:1018F000FEE7FEE7FEE7FEE704480549054A064B1A
:1019000070470000B309000831010008B002002050
:10191000B0080020B0040020B00400203149014389
:10192000314A1160704770B5002100230F22C4783E
:1019300004B32D4C246804F4E064C4F5E064210A87
:10194000C1F10403CA40447804FA03F184781440D6
:1019500021430901254C0678A155047804F01F05A0
:101960000124AC4005786D11AD0005F1E025C5F806
:10197000004109E0047804F01F050124AC401C4D2F
:101980000678761145F8264070BD1A4A0A4002438F
:10199000154B1B1F1A60704739B1134A121D12688C
:1019A0000243114B1B1D1A6006E00F4A121D1268FC
:1019B00082430D4B1B1D1A607047042808D14FF05D
:1019C000E021096941F004014FF0E022116107E0D4
:1019D0004FF0E021096921F004014FF0E02211618C
:1019E000704700000000FA050CED00E000E400E0A4
:1019F00080E100E080FFFF1F10B50446FA488442F2
:101A000008D10121401501F055FA0021601501F0BF
:101A100051FA17E0F548844208D10121001501F080
:101A200049FA0021201501F045FA0BE0F048844204
:101A300008D10121C80301F03DFA00214FF4004014
:101A400001F038FA10BD30B502460020002350687E
:101A5000E84C20400D790C6844EA0524204350608E
:101A60009068E54C2040D1E902542C434D7944EA7A
:101A7000450420439060D06A20F470000C7C641E02
:101A8000E4B2234340EA0350D06230BD002101603C
:101A9000017141718160C16001210174704721B100
:101AA000826842F00102826003E0826822F0010253
:101AB0008260704721B1826842F48072826003E0E4
:101AC000826822F480728260704710B50023CBB226
:101AD0001AB144681C43446002E044689C4344607B
:101AE00010BD816841F00801816070470146002007
:101AF0008A6802F008020AB1012000E00020704765
:101B0000816841F0040181607047014600208A68C5
:101B100002F004020AB1012000E00020704721B168
:101B2000826842F4A002826003E0826822F4A0028C
:101B300082607047014600208A6802F480020AB180
:101B4000012000E00020704710B50A460021002364
:101B5000416821F46041531E41EA4331416010BDA8
:101B600021B1426842F40062426003E0426822F41C
:101B7000006242607047F0B504460D460020002127
:101B8000092D11DDE068A5F10A0606EB46070726D8
:101B900006FA07F18843A5F10A0606EB460603FAA2
:101BA00006F10843E0600CE0206905EB45070726D5
:101BB00006FA07F1884305EB450603FA06F10843E8
:101BC0002061072A0FDA606B561E06EB86071F2678
:101BD00006FA07F18843561E06EB860605FA06F15B
:101BE0000843606322E00D2A0FDA206BD61F06EB54
:101BF00086071F2606FA07F18843D61F06EB8606DE
:101C000005FA06F10843206310E0E06AA2F10D0630
:101C100006EB86071F2606FA07F18843A2F10D0698
:101C200006EB860605FA06F10843E062F0BD21B135
:101C3000826842F48012826003E0826822F480129B
:101C4000826070470146C86C80B2704766484C306D
:101C50000068704721B1426842F48062426003E04C
:101C6000426822F480624260704721B1426842F4C7
:101C70008052426003E0426822F480524260704722
:101C80000A460021816821F4E041114381607047D8
:101C900021B1826842F40042826003E0826822F44B
:101CA00000428260704721B1826842F40212826071
:101CB00003E0826822F4021282607047014600202D
:101CC0008A6802F400120AB1012000E00020704787
:101CD000F0B504461546002000220026092911DD32
:101CE000E068A1F10A0707EB470C072707FA0CF297
:101CF0009043A1F10A0707EB470703FA07F21043E5
:101D0000E0600CE0206901EB410C072707FA0CF2B8
:101D1000904301EB410703FA07F210432061A06BE7
:101D2000C0F30156EF1C06F1010CA7EB0C0707EB03
:101D3000870C1F2707FA0CF29043EF1C06F1010CE9
:101D4000A7EB0C0707EB870701FA07F21043A06324
:101D5000F0BD10B50A4600210023816B21F440112B
:101D6000531E41EA0351816310BD08B5002300935F
:101D70000090009B0B440093009B1A6008BD08B5BF
:101D8000024600200090009201F12800009B1844B8
:101D900000900098006880B208BD0A4600214168A2
:101DA000164B19401143416070474162826270478F
:101DB0000A460021416821F01F011143416070472C
:101DC00040B109490831096841F40001064A083266
:101DD000116007E004490831096821F40001024A52
:101DE00008321160704700000024014000280140C3
:101DF000003C0140FFFEF0FFFDF7F1FFFFFD3FFF5C
:101E00000246002013680B400BB1012000E00020C7
:101E10007047CA430260704770B502460020002335
:101E200000240B125568CEB205EA060415681D4061
:101E300015B10CB1012000E0002070BD00220A1293
:101E4000D34303607047000001460020FE4A10683B
:101E500000F03800084310607047FB49096821F022
:101E60000801F94A11601146096801431160704781
:101E7000F549096821F01001F34A1160114609681B
:101E8000014311607047F148EF494860F0484860ED
:101E90007047EE48EC494860ED4848607047EA48B2
:101EA000006940F08000E84908617047E648006931
:101EB00040F08000E449086170470420E249C968A5
:101EC00001F0010109B101200EE0DF49C96801F00C
:101ED000040109B1022007E0DB49C96801F01001E3
:101EE00009B1032000E00420704700B50246042336
:101EF000FFF7E3FF034603E0FFF7DFFF0346521E51
:101F0000012B01D1002AF7D102B90523184600BDE3
:101F100030B5044604254FF43020FFF7E6FF0546B0
:101F2000042D17D1C848006940F00200C649086175
:101F300008464461006940F0400008614FF43020D9
:101F4000FFF7D3FF0546C048006941F6FD71084020
:101F5000BD490861284630BD10B504244FF4302037
:101F6000FFF7C3FF0446042C16D1B748006940F0C0
:101F70000400B54908610846006940F04000086166
:101F80004FF43020FFF7B1FF0446AF48006941F637
:101F9000FB710840AC490861204610BD00B50246FF
:101FA0000423FFF78AFF034603E0FFF786FF03469B
:101FB000521E012B01D1002AF7D102B90523184680
:101FC00000BD10B504244FF43020FFF7E7FF0446AE
:101FD000042C16D19C48006940F004009A4908611D
:101FE0000846006940F0400008614FF43020FFF7D8
:101FF000D5FF04469448006941F6FB7108409249B8
:102000000861204610BD00208F49C96901F0020116
:1020100009B1012000E00020704730B5A525042457
:10202000FFF7F1FF00B100254FF43020FFF75DFF0F
:102030000446042C3AD185488349886084488860E6
:102040000846006940F0200008610846006940F039
:10205000400008614FF43020FFF747FF0446042C8E
:102060001BD17948006941F6DF7108407649086163
:102070000846006940F01000086176480580E002DB
:10208000FFF733FF0446052C10D06F48006941F676
:10209000EF7108406C49086108E0052C06D06A48D9
:1020A000006941F6EF71084067490861204630BD7C
:1020B00078B506460C46042500200090E802FFF79C
:1020C00014FF0546042D24D15F48006940F001004B
:1020D0005D4908613480E802FFF707FF0546042DDB
:1020E00010D1B01C0090200C00990880E802FFF786
:1020F000FCFE05465448006941F6FE71084052490D
:10210000086106E05048006941F6FE7108404E49FA
:102110000861284678BD70B504460D460426F002D5
:10212000FFF7E3FE0646042E11D14748006940F050
:102130000100454908612580F002FFF7D6FE0646FA
:102140004148006941F6FE7108403F490861304648
:1021500070BD70B505460E460424E002FFF7C5FECB
:102160000446042C17D139483749886038488860BC
:102170000846006940F0100008612E80E002FFF779
:10218000B4FE0446052C06D02F48006941F6EF71D5
:1021900008402D490861204670BD2DE9F0430446F2
:1021A0004FF6FF763746B046B1460425E443E6B223
:1021B000C4F30727C4F307484FEA1469E802FFF79E
:1021C00094FE0546042D49D120481F4988602048C7
:1021D00088600846006940F010000861FF2E06D0B4
:1021E0001C4808300680E802FFF77FFE0546042DF4
:1021F00008D1FF2F06D017480A300780E802FFF702
:1022000074FE0546042D0AD1B8F1FF0F07D011481E
:102210000C30A0F80080E802FFF767FE0546042DA9
:102220000AD1B9F1FF0F07D00A480E30A0F800908C
:10223000E802FFF75AFE0546052D0FD00248006957
:1022400041F6EF71084007E0002002402301674596
:10225000AB89EFCD00F8FF1F664908612846BDE84D
:10226000F08330B5054604244FF43020FFF73DFEDF
:102270000446042C41D160485E4988605F4888600C
:102280000846006940F0200008610846006940F0F7
:10229000400008614FF43020FFF727FE0446042C6D
:1022A00022D15448006941F6DF7108405149086164
:1022B0000846006940F0100008611DB10020504937
:1022C000088002E0A5204E4908804FF43020FFF737
:1022D0000CFE0446052C10D04648006941F6EF710B
:1022E00008404449086108E0052C06D041480069CF
:1022F00041F6DF7108403F490861204630BDF0B526
:1023000005460E46174604243B483A4988603B4838
:102310008860E002FFF7E9FD0446042C19D1354836
:10232000006940F010003349086147F0F80030437D
:1023300028433349891C0880E002FFF7D6FD044694
:10234000052C06D02B48006941F6EF710840294959
:1023500008612046F0BD2748C069800870472548BD
:10236000006A704700202349096801F0200109B183
:10237000012000E00020704729B11E4A1269024383
:102380001C4B1A6104E01B4A12698243194B1A6103
:10239000704701460020012908D1164AD26902F08F
:1023A00001020AB1012008E0002006E0114AD268CB
:1023B0000A400AB1012000E0002070470D49C860C2
:1023C000704704200B49C96801F0010109B10120DF
:1023D0000EE00849C96801F0040109B1022007E0D4
:1023E0000449C96801F0100109B1032000E004208C
:1023F000704700000020024023016745AB89EFCD04
:1024000000F8FF1F10B50446CC48844208D10121D2
:10241000042000F04FFD0021042000F04BFD46E0B9
:10242000C748844208D10121082000F043FD002163
:10243000082000F03FFD3AE0C248844208D1012163
:10244000102000F037FD0021102000F033FD2EE0B9
:10245000BD48844208D10121202000F02BFD00213D
:10246000202000F027FD22E0B848844208D1012155
:10247000402000F01FFD0021402000F01BFD16E071
:10248000B348844208D10121802000F013FD0021CF
:10249000802000F00FFD0AE0AE48844207D1012100
:1024A000801500F007FD0021A01500F003FD10BD10
:1024B00010B50121084600F0FDFC0021012000F0CC
:1024C000F9FC10BD2DE9F041024600250026002050
:1024D00000230024002791F803C00CF00F0591F8A9
:1024E00003C00CF0100CBCF1000F03D091F802C037
:1024F0004CEA050591F800C0BCF1000F31D014681A
:1025000000202BE04FF0010C0CFA00F3B1F800C0F2
:102510000CEA03069E4220D183004FF00F0C0CFA08
:1025200003F7BC4305FA03FC4CEA040491F803C02A
:10253000BCF1280F06D14FF0010C0CFA00FCC2F8D8
:1025400014C00AE091F803C0BCF1480F05D14FF068
:10255000010C0CFA00FCC2F810C0401C0828D1D3B2
:102560001460B1F800C0BCF1FF0F34DD54680020E6
:102570002EE000F1080C4FF0010808FA0CF3B1F856
:1025800000C00CEA03069E4221D183004FF00F0CDD
:102590000CFA03F7BC4305FA03FC4CEA040491F877
:1025A00003C0BCF1280F05D100F1080C08FA0CF8A3
:1025B000C2F8148091F803C0BCF1480F07D100F1B4
:1025C000080C4FF0010808FA0CF8C2F81080401C03
:1025D0000828CED35460BDE8F0814FF6FF7101802A
:1025E000022181700421C170704702460020936867
:1025F0000B400BB1012000E00020704701468868C5
:1026000080B2704702460020D3680B400BB1012016
:1026100000E0002070470146C86880B27047016141
:102620007047416170470AB1016100E04161704744
:10263000C16070474FF480320A43826181618261D8
:1026400082698269704702460020434B18684FF642
:102650008073184040EA021008433F4B18607047EF
:102660003E49C8617047F0B50A46002300240021A6
:10267000002500F00046B6F1004F02D1364EF16958
:1026800001E0354E7168C0F3034583B200F4401693
:10269000B6F5401F08D121F070612F4E766826F004
:1026A00070662D4F7E6012E000F48016B6F5801F34
:1026B00006D1032606FA05F4A14341F0706106E055
:1026C000460D360103FA06F6B14341F0706122B1BE
:1026D000460D360103FA06F6314300F00046B6F126
:1026E000004F02D11C4EF16101E01B4E7160F0BD44
:1026F00030B500228B071C0F0F2303FA04F2164B90
:1027000008338C1053F824309343134C08348D1045
:1027100044F8253023468C1053F824308C07240FBE
:1027200000FA04F423430C4C08348D1044F825308F
:1027300030BD0A49DC3108607047000000080140E4
:10274000000C01400010014000140140001801403D
:10275000001C014000200140000001400000204218
:1027600010B50446F748844209D10121480500F01C
:10277000AEFB00214FF4001000F0A9FB08E001219E
:10278000880500F0A4FB00214FF4800000F09FFBBF
:1027900010BD2DE9F04385B004460D460026B14634
:1027A0000427DFF8A483A6884FF6C0700640684669
:1027B00000F0F9FADDF80880E448B8FBF0F01FFA01
:1027C00080F946EA0906A68020884FF6FE71084087
:1027D00020800026DE49286888420CD828684000FE
:1027E000B8FBF0F087B2042F00DA04273E4309F16A
:1027F0000100208427E0E8884BF6FF71884206D16B
:10280000286800EB4000B8FBF0F087B209E02868C8
:1028100000EBC00101EB0010B8FBF0F087B247F409
:102820008047C7F30B0008B947F0010747F40040A1
:1028300006434FF4967009FB00F04FF47A7190FB59
:10284000F1F0401C2084A683208840F00100208005
:1028500026884FF6F5300640A88869890843064364
:102860002680A88929890843208105B0BDE8F08326
:1028700041F288310160002181804BF6FF71C180F7
:102880000021018141814FF480418181704721B154
:10289000028842F00102028004E002884FF6FE73D3
:1028A0001A400280704721B1828842F4006282801F
:1028B00004E082884FF2FF731A408280704721B192
:1028C000828842F48052828004E082884EF6FF7350
:1028D0001A408280704721B1028842F480720280DF
:1028E00004E002884FF6FF631A400280704721B16E
:1028F000028842F40072028004E002884FF6FF531F
:102900001A400280704721B1028842F4806202803E
:1029100004E002884FF6FF331A40028070470A46EF
:10292000002181894FF60173194002F0FE0319431B
:102930008181704721B1828942F00102828104E0E5
:1029400082894FF6FE731A408281704721B1028856
:1029500042F04002028004E002884FF6BF731A4042
:10296000028070471AB183880B43838002E083881A
:102970008B4383807047018270470146088AC0B24A
:10298000704712B141F0010102E04FF6FE731940A9
:102990000182704708B5024600200090009200981E
:1029A000084400900098008808BD21B1028842F4D4
:1029B0000042028003E00288C2F30E0202807047E8
:1029C000B1F5006F04D1028842F40062028004E095
:1029D00002884FF2FF731A4002807047B1F5005F22
:1029E00004D1028842F40052028004E002884DF6CD
:1029F000FF731A400280704721B1028842F480526E
:102A0000028004E002884EF6FF731A40028070478D
:102A1000B1F5006F04D1028842F40062028004E044
:102A200002884FF2FF731A400280704721B102887A
:102A300042F02002028004E002884FF6DF731A4061
:102A4000028070470146088B0012704721B102884E
:102A500042F01002028004E002884FF6EF731A4041
:102A60000280704721B9028842F08002028004E0AF
:102A700002884FF67F731A4002807047B1F5804F8D
:102A800005D0828B4BF6FF731A40828303E0828B62
:102A900042F480428283704770B5024600240025CC
:102AA00000230020958A138B1B0445EA030626F0B9
:102AB0007F4404EA01068E4201D1012000E000209B
:102AC00070BD10B501460020002300228B8A0A8BBE
:102AD000120443EA020424F07F4010BD0CB5024604
:102AE000002000230193009300920B0F019321F02B
:102AF0007F41019B1BB1009B1433009303E0090C41
:102B0000009B18330093009B1B680B400BB1012006
:102B100000E000200CBD002221F07F42D3438382DD
:102B2000704730B5024600200023948801F0E0652C
:102B300004EA154321F07F41948A0C4054B14BB113
:102B4000012008E00054004000127A0040420F00CB
:102B5000A0860100002030BD002221F07F42D34337
:102B6000838270470E49086070470D49486070477E
:102B70000B49886070474AF6AA20094908607047E7
:102B80004CF6CC4006490860704701460020044AD4
:102B9000D2680A400AB1012000E00020704700001E
:102BA00000300040DF48006840F00100DD49086067
:102BB00008464068DC490840DA4948600846006831
:102BC000DA490840D74908600846006820F48020A8
:102BD00008600846406820F4FE0048604FF41F007B
:102BE00088607047CF49096821F48031CD4A11606F
:102BF0001146096821F480211160B0F5803F03D0AF
:102C0000B0F5802F0ED106E0C649096841F4803145
:102C1000C44A116007E0C349096841F4A021C14AD0
:102C2000116000E000BF00BF704710B501460022F0
:102C3000002300204A11012A02D1BA4C236806E081
:102C4000022A02D1B74C236A01E0B64C636A01F054
:102C50001F02012494401C400CB1012000E0002020
:102C600010BD38B5002000900024002500BF3120A1
:102C7000FFF7DBFF05460098401C00900098B0F578
:102C8000A06F01D0002DF2D03120FFF7CEFF08B1A8
:102C9000012400E00024204638BD01460020A14A5E
:102CA000106820F0F80040EAC10010607047A049A9
:102CB00008607047024600209A4B586820F47C1048
:102CC00042EA01031843974B5860704798490866D9
:102CD000704701460020934A506820F003000843E3
:102CE000506070478F48406800F00C007047014604
:102CF00000208C4A506820F0F00008435060704774
:102D000001460020874A506820F4E0600843506084
:102D1000704701460020834A506820F4605040EA22
:102D2000C1005060704729B17E4A527A02437D4B00
:102D30005A7204E07B4A527A82437A4B5A72704745
:102D40007B49D8310860704701460020754A5068B9
:102D500020F440400843506070470021714A2032FF
:102D60001170704A82F82010012802D004280AD17C
:102D700004E001216B4A2032117005E00521694A07
:102D80002032117000E000BF00BF70476949086041
:102D900070476449096A0143624A11627047654994
:102DA00044390860704730B5002100220024002318
:102DB0005C4D6D6805F00C0121B1042905D008298E
:102DC00023D105E05C4D056022E05B4D05601FE00E
:102DD000544D6D6805F47012524D6D6805F48034E1
:102DE000022505EB92421CB9544D554305600BE09A
:102DF0004C4D6D6805F400351DB1504D55430560CF
:102E000002E04D4D5543056002E04B4D056000BFAB
:102E100000BF444D6D6805F0F0010909484D6B5C39
:102E20000568DD4045603F4D6D6805F4E061090AC5
:102E3000434D6B5C4568DD4085603A4D6D6805F437
:102E40006051C90A3E4D6B5C4568DD40C560354D3B
:102E50006D6805F44041890B3A4D6B5CC568B5FB64
:102E6000F3F5056130BD29B12E4A526902432D4B5D
:102E70005A6104E02B4A526982432A4B5A617047D7
:102E800029B1284A92690243264B9A6104E0254AF7
:102E900092698243234B9A61704729B1214AD269D2
:102EA0000243204BDA6104E01E4AD26982431D4B83
:102EB000DA61704729B11B4AD2680243194BDA60C4
:102EC00004E0184AD2688243164BDA60704729B191
:102ED000144A12690243134B1A6104E0114A126941
:102EE0008243104B1A61704712494039086070479D
:102EF0000F49C86470470B49C87170470948406A58
:102F000040F0807007494862704701460020054A3A
:102F100092680A400AB1012000E000207047014990
:102F200088727047001002400000FFF8FFFFF6FEB5
:102F3000000042428004424200127A0000093D0033
:102F4000290100203901002010B50446FE488442C2
:102F500008D10121C014FFF7ADFF0021E014FFF7F5
:102F6000A9FFC4E0B4F1804F08D101210846FFF762
:102F7000AEFF00210120FFF7AAFFB8E0F34884422A
:102F800008D101210220FFF7A2FF00210220FFF754
:102F90009EFFACE0EE48844208D101210420FFF7F7
:102FA00096FF00210420FFF792FFA0E0E948844249
:102FB00008D101210820FFF78AFF00210820FFF730
:102FC00086FF94E0E448844208D101211020FFF7F5
:102FD0007EFF00211020FFF77AFF88E0DF4884425F
:102FE00008D101212020FFF772FF00212020FFF7E8
:102FF0006EFF7CE0DA48844208D101214014FFF7DB
:1030000059FF00216014FFF755FF70E0D548844256
:1030100009D10121C804FFF74DFF00214FF4002022
:10302000FFF748FF63E0D048844209D10121080539
:10303000FFF740FF00214FF48010FFF73BFF56E001
:10304000CA48844209D101214805FFF733FF002116
:103050004FF40010FFF72EFF49E0C548844208D125
:1030600001214020FFF733FF00214020FFF72FFF11
:103070003DE0C048844208D101218020FFF727FFAE
:1030800000218020FFF723FF31E0BB48844208D1B4
:1030900001218015FFF71BFF0021A015FFF717FF87
:1030A00025E0B648844209D101210804FFF702FF58
:1030B00000214FF48030FFF7FDFE18E0B048844255
:1030C00009D101214804FFF7F5FE00214FF400303B
:1030D000FFF7F0FE0BE0AB48844208D101218804E1
:1030E000FFF7E8FE00214FF48020FFF7E3FE10BD5C
:1030F00000220288944B98420ED0994B98420BD0F4
:10310000B0F1804F08D0914B984205D0904B984237
:1031100002D0904B984204D14FF68F731A404B88DF
:103120001A438D4B984207D08C4B984204D04FF6EF
:10313000FF431A40CB881A4302808B8883850B8813
:103140000385814B98420BD0854B984208D08B4B1E
:10315000984205D08A4B984202D08A4B984201D1BE
:103160000B7A038601238382704770B50024002206
:103170000023058C4FF6FE7635400584028C83884B
:10318000048B4FF68F752C40B51E2C400D882C43B8
:10319000751E2A400D892A434D882A436A4DA8424C
:1031A0000BD06F4DA84208D0744DA84205D0744D85
:1031B000A84202D0734DA84213D14FF6F7752A40AA
:1031C0004D892A434FF6FB752A408D882A434FF6D6
:1031D000FF652B404FF6FF552B408D892B43CD8942
:1031E0002B4383800483CD888586028470BD70B5AF
:1031F000002400220023058C4FF6EF76354005842D
:10320000028C8388048B48F6FF752C404FF6FF45EF
:103210002C400D884FF6FF7606EA05252C434FF625
:10322000DF752A400D8906EA05152A434D8806EA0E
:1032300005152A43444DA84202D0494DA8421DD14C
:103240004FF67F752A404D894FF6FF7606EA051541
:103250002A434FF6BF752A408D8806EA05152A4392
:103260004FF6FF352B404FF2FF752B408D8906EA54
:1032700085052B43CD8906EA85052B43838004838E
:10328000CD880587028470BD70B50024002200231C
:10329000058C4FF6FF6635400584028C8388848B4D
:1032A0004FF68F752C404FF6FC752C400D882C4343
:1032B0004FF6FF552A400D894FF6FF7606EA0525A1
:1032C0002A434D8806EA05252A431F4DA84202D00D
:1032D000234DA8421DD14FF2FF752A404D894FF66C
:1032E000FF7606EA05252A434FF6FF352A408D88EA
:1032F00006EA05252A434EF6FF752B404DF6FF756D
:103300002B408D8906EA05152B43CD8906EA051564
:103310002B4383808483CD888587028470BD70B5FC
:10332000002200230024058C4EF6FF7635400584EC
:10333000038C8488828B48F6FF752A404FF6FF4540
:103340002A400D8820E00000002C014000040040CD
:1033500000080040000C0040001000400014004035
:1033600000340140004C0140005001400054014035
:1033700000180040001C00400020004000400140B8
:1033800000440140004801404FF6FF7606EA05255B
:103390002A434DF6FF752B400D8906EA05352B4370
:1033A0004D8806EA05352B43FA4DA84202D0FA4D66
:1033B000A84208D14BF6FF752C408D894FF6FF7659
:1033C00006EA85152C4384808283CD88A0F840507E
:1033D000038470BD828B4FF2FF331A408283828B4D
:1033E0004FF6FF7303EA01231A4382837047F0B557
:1033F0000C461546002200210026078C4EF6FF7C65
:1034000007EA0C070784828B018C4FF6FF7707EAE7
:10341000043640F6FF473A404FF6FF7707EA0527A4
:103420003A434FF6FF7707EA03373A43D94FB8429A
:103430000ED0D94FB8420BD0B0F1804F08D0D74F43
:10344000B84205D0D64FB84202D0D64FB84206D1C6
:103450004DF6FF77394046F48057394305E047F68B
:10346000FF57394044F48057394382830184F0BDCB
:10347000828B4FF6F3731A408283828B0A438283D6
:103480007047F0B50C461546002200210026078C37
:103490004FF6FF6C07EA0C070784828B018C4FF60E
:1034A000FF7707EA04264FF60C773A404FF6FF778E
:1034B00007EA03172F433A43B64FB8420ED0B64F30
:1034C000B8420BD0B0F1804F08D0B44FB84205D00D
:1034D000B34FB84202D0B34FB84206D14FF6FF57B0
:1034E000394046F48077394305E04FF2FF573940C1
:1034F00044F48077394382830184F0BD028B4FF21C
:10350000FF331A400283028B4FF6FF7303EA012355
:103510001A4302837047F0B50C461546002200217D
:103520000026078C4FF6EF7C07EA0C070784028B16
:10353000018C4FF6FF7707EA041640F6FF473A4042
:103540004FF6FF7707EA03373A434FF6FF7707EA6C
:1035500005273A438F4FB8420ED08F4FB8420BD059
:10356000B0F1804F08D08D4FB84205D08C4FB84293
:1035700002D08C4FB84206D14FF6DF77394046F083
:103580001007394305E04FF65F77394044F01007E4
:10359000394302830184F0BD028B4FF6F3731A4066
:1035A0000283028B0A4302837047F0B50C4615462E
:1035B00000220021068C4FF6FE773E400684028BE7
:1035C000018C4FF60C7632407E1C06EA03162E4321
:1035D0003243704EB0420ED06F4EB0420BD0B0F1BD
:1035E000804F08D06D4EB04205D06D4EB04202D033
:1035F0006C4EB04206D14FF6FD76314044F00106E4
:10360000314305E04FF6F576314044F00106314391
:1036100002830184F0BD70B505460C465D488542C5
:103620000ED05D4885420BD0B5F1804F08D05B4885
:10363000854205D05A48854202D05A48854200D179
:1036400000E000BF208850B92389A28861882846FD
:10365000FFF7ABFFE1882846FFF79EFF25E02088B3
:1036600004280AD12389A28861882846FFF753FFDE
:10367000E1882846FFF742FF17E0208808280AD192
:103680002389A28861882846FFF7FBFEE188284647
:10369000FFF7EEFE09E02389A28861882846FFF73C
:1036A000A6FEE1882846FFF795FE70BD2DE9F041A2
:1036B00005460C4600260127608808B9022600E06E
:1036C0000026A088012801D1022700E001272088D8
:1036D000A0B92389A28861882846FFF766FFE188A0
:1036E0002846FFF759FF23893A4631462846FFF717
:1036F00012FFE1882846FFF701FF13E02389A28823
:1037000061882846FFF707FFE1882846FFF7F6FEA5
:1037100023893A4631462846FFF747FFE188284685
:10372000FFF73AFFBDE8F0810A884B881A438B887F
:103730001A43CB881A430B891A434B891A438B8946
:103740001A43A0F8442070474FF6FF718180002192
:103750000180C18041800172704700210180418059
:103760008180C180018141818181C18170470021B7
:1037700001804180012181800021C1800181704749
:103780000021018041808180C1800181418181814E
:1037900070470000002C014000340140000400404C
:1037A00000080040000C004021B1028842F00102F4
:1037B000028004E002884FF6FE731A4002807047D0
:1037C00031B1B0F8442042F40042A0F8442005E0B2
:1037D000B0F84420C2F30E02A0F8442070471AB19A
:1037E00083890B43838102E083898B438381704704
:1037F0008182704741EA0203A0F8483070471AB14D
:1038000083890B43838102E083898B4383817047E3
:1038100001894FF6F8721140018170470A46002174
:1038200001894FF68F73194011430181704730B5FC
:1038300004460D4629462046FFF7F0FF208940F058
:103840000700208130BD2DE9F04104460D461646A3
:103850001F46602D06D13B46012231462046FFF728
:103860005AFE05E03B46012231462046FFF79DFE09
:1038700029462046FFF7D2FF208940F0070020812B
:10388000BDE8F08130B50C4600210189C9B24FF680
:10389000FF7505EA0325154325432943018130BD02
:1038A0002DE9F04105460E4617469846002443464A
:1038B0003A4631462846FFF7E5FF2C894FF6F87067
:1038C000044044F007044FF68F70044044F0700445
:1038D0002C81BDE8F081F0B504460D4616461F4622
:1038E0003B46324629462046FFF7CCFF208940F46C
:1038F00080402081F0BD0185828270470A46002108
:1039000001884FF68F731940114301807047F0B55D
:103910000C4615461E460021002200230189028B19
:10392000038C4FF6F877394021434FF6FC473A4075
:1039300040F201173A434FF6DD773B404FF6FF77F1
:1039400007EA06172F433B43018102830384F0BD3E
:103950000A460021018B4FF68F73194011430183F2
:1039600070470A460021018B48F6FF7319404FF655
:10397000FF7303EA02231943018370470A460021BB
:10398000818B4FF68F7319401143818370470A462C
:103990000021818B48F6FF7319404FF6FF7303EA4D
:1039A000022319438183704721B1028842F08002CB
:1039B000028004E002884FF67F731A40028070474D
:1039C00021B1828842F00402828004E082884FF6AE
:1039D000FB731A408280704721B1828842F008024E
:1039E000828004E082884FF6F7731A408280704725
:1039F00021B1828842F00102828004E082884FF681
:103A0000FE731A40828070470A460021018B4FF6F0
:103A1000F77319401143018370470A460021018B57
:103A20004FF2FF7319404FF6FF7303EA0223194365
:103A3000018370470A460021818B4FF6F7731940C6
:103A40001143818370470A460021818B4FF2FF7337
:103A500019404FF6FF7303EA02231943818370472D
:103A60000A460021018B4FF6FB7319401143018375
:103A700070470A460021018B4FF6FF3319404FF67D
:103A8000FF7303EA02231943018370470A460021AA
:103A9000818B4FF6FB7319401143818370470A46AF
:103AA0000021818B4FF6FF3319404FF6FF7303EA75
:103AB00002231943818370470A460021018B4FF688
:103AC0007F7319401143018370470A460021018B1F
:103AD000C1F30E014FF6FF7303EA0223194301837A
:103AE00070470A460021818B4FF67F7319401143BE
:103AF000818370470A460021818BC1F30E014FF686
:103B0000FF7303EA02231943818370470A460021A9
:103B1000018C4FF6FD7319401143018470470A462A
:103B20000021018C4FF6F77319401143018470474F
:103B30000A460021018C4FF6DF7319404FF6FF73E0
:103B400003EA02131943018470470A460021018CDD
:103B50004FF67F7319404FF6FF7303EA02131943C0
:103B6000018470470A460021018C4FF6FF5319402B
:103B70004FF6FF7303EA02231943018470470A4694
:103B80000021018C4FF2FF7319404FF6FF7303EAD7
:103B900002231943018470470A460021018C4DF627
:103BA000FF7319404FF6FF7303EA02331943018490
:103BB000704730B5002301248C40A3B2048C9C4391
:103BC0000484048C02FA01F5ADB22C43048430BDA8
:103BD00030B5002304248C40A3B2048C9C4304849D
:103BE000048C02FA01F5ADB22C43048430BD70B5EB
:103BF0000346002000241846183001258D40ACB241
:103C00001D8CA5431D8409B1082909D100EB610071
:103C1000056825F0700505600568154305600EE030
:103C20000D1FC5F34E052844056825F4E0450560E1
:103C300005684FF6FF7606EA02263543056070BD3B
:103C400021B1028842F00202028004E002884FF6AD
:103C5000FD731A400280704721B1028842F00402CD
:103C6000028004E002884FF6FB731A40028070471E
:103C700021B1828842F08002828004E082884FF67F
:103C80007F731A408280704702884FF6F7731A409C
:103C9000028002880A430280704782884FF68F7341
:103CA0001A40828082880A438280704702894FF6D8
:103CB000F8731A40028102890A430281704702891F
:103CC0004FF67F731A40028102890A4302817047CE
:103CD000818470478185704781867047018770476E
:103CE00081877047A0F84010704702884FF6FF4365
:103CF0001A40028002880A43028070470146888E7B
:103D000070470146088F70470146888F704701460B
:103D1000B1F8400070470146888C70470146088D15
:103D2000704702460020138A0B400BB1012000E0CF
:103D300000207047CA430282704730B50246002017
:103D400000230024158A05EA0103958905EA010488
:103D500013B10CB1012000E0002030BDCA43028243
:103D60007047000010B50446FB48844209D1012188
:103D70008803FFF79FF800214FF48040FFF79AF87F
:103D800032E0F648844209D101214804FFF79FF848
:103D900000214FF40030FFF79AF825E0F048844204
:103DA00009D101218804FFF792F800214FF4802007
:103DB000FFF78DF818E0EB48844209D10121C804CF
:103DC000FFF785F800214FF40020FFF780F80BE0A3
:103DD000E548844208D101210805FFF778F8002161
:103DE0004FF48010FFF773F810BD2DE9F04786B04F
:103DF00005460E460024A24600BFA1460027B08912
:103E000000B100BF2F462C8A4CF6FF700440F088AA
:103E100004432C82AC894EF6F3100440B0883189FB
:103E20000843718908430443AC81AC8A4FF6FF40D4
:103E30000440B0890443AC8201A8FEF7B4FFC64831
:103E4000874202D1DDF810A001E0DDF80CA0A889BE
:103E500000F4004040B10AEBCA0000EB0A103168E0
:103E60004900B0FBF1F807E00AEBCA0000EB0A10CA
:103E700031688900B0FBF1F86420B8FBF0F0040170
:103E80002009642101FB1089A88900F4004040B199
:103E9000322000EBC900B0FBF1F000F00700044352
:103EA00008E0322000EB09106421B0FBF1F000F0D3
:103EB0000F0004432C8106B0BDE8F0874FF4165183
:103EC000016000218180C18001810C21418100219C
:103ED0008181704710B502460020108A4FF2FF031F
:103EE00018400B884C8823438C882343CC88234379
:103EF0001843108210BD0021018041808180C18063
:103F0000704721B1828942F40052828104E08289A3
:103F10004DF6FF731A4082817047F0B503460024C6
:103F200000260025002040F66A17B94200D100BFE4
:103F30001846C1F3421401F01F06012707FA06F5DF
:103F4000012C01D10C3004E0022C01D1103000E032
:103F500014301AB107682F43076002E00768AF43C7
:103F60000760F0BD1AB1838A0B43838202E0838A23
:103F70008B4383827047028A4FF6F0731A400282A5
:103F8000028A0A430282704782894FF2FF731A4005
:103F9000828182890A438281704721B1828942F0FD
:103FA0000202828104E082894FF6FD731A40828109
:103FB0007047028A4FF6DF731A400282028A0A4370
:103FC0000282704721B1028A42F48042028204E0F8
:103FD000028A4BF6FF731A4002827047C1F308024F
:103FE0008280704701468888C0F308007047818945
:103FF00041F0010181817047028BD2B20283028BB2
:1040000042EA012202837047028B02F47F4202835C
:10401000028B0A430283704721B1828A42F0200258
:10402000828204E0828A4FF6DF731A4082827047F0
:1040300021B1828A42F01002828204E0828A4FF625
:10404000EF731A408282704721B1828A42F00802DF
:10405000828204E0828A4FF6F7731A4082827047A8
:1040600021B1828942F40042828103E08289C2F355
:104070000E028281704721B1828A42F400628282FC
:1040800004E0828A4FF2FF731A4082827047828A6C
:104090004FF6FB731A408282828A0A4382827047FB
:1040A00021B1828A42F00202828204E0828A4FF6C3
:1040B000FD731A408282704702460020B1F5007FEE
:1040C00000D100BF13880B400BB1012000E000209D
:1040D000704701F40072B2F5007F00D100BFCA43FF
:1040E0000280704770B5024600240023002500209E
:1040F00040F66A16B14200D100BFC1F3421501F08B
:104100001F03012606FA03F3012D02D196893340DD
:1041100006E0022D02D1168A334001E0968A334030
:104120000C12012606FA04F41688344013B10CB1BF
:10413000012000E0002070BD10B50022002340F6F1
:104140006A14A14200D100BF0A1201249440A3B214
:10415000DC43048010BD00000038014000440040F2
:1041600000480040004C00400050004070470000F4
:104170000FB4044910B503AA029800F0F9F810BC76
:104180005DF814FB100100202DE9F0410E460446B5
:10419000002020622046E168884730B3252805D0FA
:1041A000D4E901219047206A401CF2E7E1682046EB
:1041B00000278847050018D0A5F14100192802D82A
:1041C00020354FF400673246294620462760FCF729
:1041D00009F840B1012804D0F61D26F0070608367C
:1041E000D8E7361DD6E72846DAE7206ABDE8F08131
:1041F0002DE9F0410646002410687529314616A5C0
:1042000010D0AFF30080002802DA404213A507E087
:1042100031688A0701D512A502E0490704D511A526
:10422000012401E0AFF3008000210A2206F12407F7
:1042300009E0B0FBF2FCB0FBF2F302FB1C003030F3
:1042400078541846491C0028F3D123462A463046A4
:10425000BDE8F04100F033B8000000002D00000080
:104260002B000000200000004FF0000200B51346B4
:1042700094469646203922BFA0E80C50A0E80C5086
:10428000B1F12001BFF4F7AF090728BFA0E80C5037
:1042900048BF0CC05DF804EB890028BF40F8042B30
:1042A00008BF704748BF20F8022B11F0804F18BF9D
:1042B00000F8012B704770477047704770472DE931
:1042C000F0470D4699469246044600F124080168DD
:1042D000880604D5E06921F01001216000E001208A
:1042E000A84201DD471B00E00027A1697A1902EB13
:1042F0000900081AA0612078C00602D42046AFF356
:104300000080002608E0D4E901211AF80600904751
:10431000206A401C761C20624E45F4DB2078C006E3
:104320000AD52046AFF3008006E0D4E90121302011
:104330009047206A401C2062381EA7F10107F4DC78
:1043400007E0D4E9012118F805009047206A401CD5
:104350002062281EA5F10105F3DC2046AFF30080A2
:104360002078000602D50220BDE8F0870120FBE797
:10437000074B70B50D467B4400F011F80446284603
:1043800000F020F810B14FF0FF3070BD204670BD36
:1043900009CEFFFF01694A1C02610878704700B529
:1043A0008FB0CDE901310021059105497944CDE96E
:1043B000031011466846FFF7E7FE0FB000BD00008E
:1043C000E5FFFFFF007B00F080007047754600F0BE
:1043D0002BF8AE4605006946534620F00700854697
:1043E00018B020B5FDF788FABDE820404FF0000670
:1043F0004FF000074FF000084FF0000B21F00701CD
:10440000AC46ACE8C009ACE8C009ACE8C009ACE80F
:10441000C0098D46704710B50446AFF300802046B2
:10442000BDE81040FBF7F0BE004870475002002086
:104430005044000800000020400100006C0100080A
:10444000104500084001002070070000C801000866
:1044500081101F202122232425262728293436864F
:10446000B55C2A566B691011B6510920E01328304B
:104470005850120D0320802828A0FF0190712A4077
:104480008820201084A24A041010010203040607A9
:1044900008095B2003E0010A0D4009010A280F5AB0
:1044A0003C0305532222200887280A32340C08B521
:1044B0000242021D27285594C5020714048D2B13B0
:1044C000803213753A136C4313644F4264071AF039
:1044D0004A3AFFFF27180C020406080A0C0E1012B5
:1044E00014FF010110100F26242221201F1E1D0C75
:1044F0000A08060402292359010110C3A4061270F8
:10450000128A3C020101D9390389E569E929793127
:0400000508000131BD
:00000001FF
